:100000000C9463000C948B000C948B000C948B006C
:100010000C948B000C948B000C948B000C948B0034
:100020000C948B000C948B000C948B000C948B0024
:100030000C948B000C948B000C948B000C948B0014
:100040000C94E4050C948B000C94EC040C948B0041
:100050000C948B000C948B000C948B000C948B00F4
:100060000C944B020C948B0000000000240027002D
:100070002A0000000000250028002B0000000000DE
:1000800023002600290004040404040404040202DA
:100090000202020203030303030301020408102007
:1000A0004080010204081020010204081020000012
:1000B0000007000201000003040600000000000029
:1000C00000000602A50511241FBECFEFD8E0DEBF59
:1000D000CDBF11E0A0E0B1E0E4EDFFE002C005908B
:1000E0000D92AC30B107D9F711E0ACE0B1E001C03E
:1000F0001D92AB3DB107E1F710E0C6ECD0E004C0C3
:100100002297FE010E94E407C23CD107C9F70E9472
:10011000E5040C94E8070C9400000F931F93CF9311
:10012000DF93689F8001699F100D789F100D112447
:10013000C8010E94A900EC01009729F060E070E07E
:10014000A8010E94AB01CE01DF91CF911F910F91C9
:100150000895CF93DF93BC018230910510F462E0E3
:1001600070E0A091D901B091DA01ED01E0E0F0E09A
:1001700040E050E021C0888199818617970769F493
:100180008A819B81309719F09383828304C0909376
:10019000DA018093D901FE0134C06817790738F479
:1001A0004115510519F08417950708F4AC01FE01BB
:1001B0008A819B819C01E9012097E9F6411551054F
:1001C000A9F1CA01861B970B049708F4BA01E0E075
:1001D000F0E02AC08D919C91119784179507F9F44E
:1001E0006417750781F412968D919C91139730973F
:1001F00019F09383828304C09093DA018093D9012C
:10020000FD0132964CC0CA01861B970BFD01E80F19
:10021000F91F6193719302978D939C9340C0FD01E8
:10022000828193819C01D9011097A1F68091D70119
:100230009091D801892B41F48091020190910301A2
:100240009093D8018093D70140910401509105010A
:100250004115510541F44DB75EB780910001909171
:100260000101481B590B2091D7013091D801CA01D7
:10027000821B930B8617970780F0AB014E5F5F4F91
:100280008417950750F0420F531F5093D8014093A5
:10029000D701F9016193719302C0E0E0F0E0CF0172
:1002A000DF91CF910895CF93DF93009709F450C069
:1002B000EC0122971B821A82A091D901B091DA0138
:1002C000109709F140E050E0AC17BD0708F1BB837F
:1002D000AA83FE0121913191E20FF31FAE17BF07F0
:1002E00079F48D919C911197280F391F2E5F3F4F04
:1002F0003983288312968D919C9113979B838A83CF
:100300004115510571F4D093DA01C093D90120C091
:1003100012968D919C911397AD01009711F0DC011D
:10032000D3CFFA01D383C28321913191E20FF31F1E
:10033000CE17DF0769F488819981280F391F2E5F56
:100340003F4FFA01318320838A819B81938382838B
:10035000DF91CF910895DC0101C06D934150504071
:10036000E0F7089580910F0190910E01891B089587
:1003700090910E0180910F01981710F080E0089580
:10038000E0910C01F0910D01E90FF11D80819F5F5B
:1003900090930E0108959C01809116019091170190
:1003A000892B11F190910E0180910F019817E0F0C7
:1003B00090E00BC0E0910C01F0910D01EA0FFB1FE2
:1003C000A20FB31F8C9180839F5FA92FB0E0A61767
:1003D000B70784F310920E0160930F01E0911601AC
:1003E000F0911701CB0109950895E0911401F09166
:1003F0001501309729F010921201109213010995FE
:10040000089570931701609316010895089580E28E
:1004100090E061E070E00E948D0080930C01909369
:100420000D0110920E0110920F0180E290E061E048
:1004300070E00E948D008093100190931101109242
:100440001201109213010E94CD0308950F931F9380
:100450008C01862F0E943D0285EF91E00E944602AA
:100460008BEC91E00E944102C8010E9407021F919B
:100470000F9108950E9426020895880F8093BA0074
:10048000089590931E0180931D01089590931C017F
:1004900080931B0108951F920F920FB60F921124A3
:1004A0002F933F934F935F936F937F938F939F937C
:1004B000AF93BF93EF93FF938091B90090E0887F53
:1004C00090708036910509F4E2C081369105CCF533
:1004D0008832910509F47BC089329105B4F48031EA
:1004E000910509F46FC0813191053CF4009709F43E
:1004F00038C1089709F040C165C08831910509F4F9
:1005000066C0809709F038C17FC08034910509F436
:10051000A3C08134910544F48033910509F47FC070
:10052000C89709F029C186C08035910509F486C0B5
:100530008835910509F495C08834910509F01CC1EE
:100540009EC08839910509F404C189399105ECF4FC
:100550008837910509F49BC0893791054CF488369A
:10056000910509F494C08037910509F005C18FC049
:100570008838910509F4EDC08039910509F48DC0E2
:100580008038910509F0F8C088C0803B910509F4D6
:10059000B2C0813B91054CF4803A910509F491C0B9
:1005A000883A910509F0E8C0A6C0803C910509F49D
:1005B000D4C0883C910509F4D0C0883B910509F06E
:1005C000DBC0B1C080911A018093BB00C0C0909184
:1005D000210180912201981778F490912101E091F6
:1005E0001F01F0912001E90FF11D80818093BB0074
:1005F0009F5F90932101ABC085ED8093BC008091FB
:10060000BC0084FDFCCFB6C080E280932A0185ED5A
:100610008093BC008091BC0084FDFCCFABC080E324
:1006200080932A0185ED8093BC008091BC0084FDFD
:10063000FCCFA0C088E380932A018FC08091210164
:100640009091BB00E0911F01F0912001E80FF11D96
:1006500090838F5F809321019091210180912201ED
:1006600074C0809121019091BB00E0911F01F09135
:100670002001E80FF11D90838F5F8093210185EDAC
:100680008093BC008091BC0084FDFCCF73C083E0EC
:1006900080931901109229015AC08091290180325A
:1006A00008F057C0809129019091BB00E09127018B
:1006B000F0912801E80FF11D90838F5F809329014D
:1006C00046C080912901803248F480912901E0914F
:1006D0002701F0912801E80FF11D10826091290196
:1006E000E0911D01F0911E01809127019091280158
:1006F00070E0099532C084E08093190110922501C1
:1007000010922601E0911B01F0911C010995809146
:100710002601882341F481E080932601E0912301A2
:10072000F0912401108290912501E0912301F09134
:100730002401E90FF11D80818093BB009F5F90939E
:1007400025019091250180912601981710F485ECE0
:1007500001C085E88093BC000FC085EC8093BC008D
:1007600009C010922A0185ED8093BC008091BC00E5
:1007700084FDFCCF10921901FF91EF91BF91AF91D1
:100780009F918F917F916F915F914F913F912F91A9
:100790000F900FBE0F901F90189510921901449A58
:1007A000459AE9EBF0E080818E7F808380818D7FA8
:1007B000808388E48093B80085E48093BC0080E265
:1007C00090E061E070E00E948D0080931F019093A3
:1007D000200180E290E061E070E00E948D00809353
:1007E00023019093240180E290E061E070E00E9498
:1007F0008D008093270190932801089560912D0129
:1008000070912E018AE00E94B80660912F017091CC
:10081000300189E00E94B806809131019091320147
:10082000009749F483E060E00E9431078BE060E0CC
:100830000E94310708951816190654F483E060E009
:100840000E94310760913101709132018BE00CC040
:100850008BE060E00E9431076091310170913201BC
:10086000709561957F4F83E00E94B8060895CF92FE
:10087000DF92EF92FF920F931F93CF93DF93019735
:1008800029F410923401109233016EC088E191E096
:100890000E94B801282F30E03093340120933301B7
:1008A000C90101970397B0F141C000913301109144
:1008B000340188E191E00E94B801000F111F055D2D
:1008C0001E4FF80180831182009133011091340191
:1008D000000F111F055D1E4FF801E080F18088E1D7
:1008E00091E00E94B801D82FC0E0EC2AFD2AF8015F
:1008F000F182E082809133019091340101969093CE
:10090000340180933301049741F4D0923401C092B2
:10091000330103C083E0C82ED12C88E191E00E940E
:10092000B201882311F60E94FE031EC02430310557
:10093000A9F409C088E191E00E94B801682F89EB11
:1009400091E00E94DC0588E191E00E94B2018823D9
:1009500089F70AC088E191E00E94B80188E191E03E
:100960000E94B2018823B1F7DF91CF911F910F91BF
:10097000FF90EF90DF90CF90089564E670E080E004
:1009800090E00E94540608950F931F9308E111E030
:10099000C80165E570E00E943A02C80167E374E0AF
:1009A0000E94010289EB91E040E855E260E070E0CE
:1009B0000E94290583E061E00E9411078BE061E05D
:1009C0000E9411071F910F9108950E947E060E94B8
:1009D000C4040E94BD04FDCF1F920F920FB60F9268
:1009E00011242F933F934F935F936F937F938F9334
:1009F0009F93AF93BF93EF93FF934091C600E09115
:100A0000B501F091B601CF01019660E870E00E9457
:100A10007E079C018091B7019091B8012817390792
:100A200039F0EB5CFE4F40833093B6012093B50163
:100A3000FF91EF91BF91AF919F918F917F916F91B6
:100A40005F914F913F912F910F900FBE0F901F908C
:100A50001895AF92BF92CF92DF92EF92FF920F93D1
:100A60001F93CF93DF936C017A018B01DC01149605
:100A7000AD90BC901597CB01BA0122E030E040E088
:100A800050E00E94B307205C3D4B404F5F4FCA01CE
:100A9000B901A80197010E94B307C901DA010197C2
:100AA000A109B109292F3A2F4B2F552747FD5A95F8
:100AB0000196A11DB11DE5012883E601EE81FF81AC
:100AC00081508083EA85FB85208141E050E0CA01A6
:100AD0000E8402C0880F991F0A94E2F7282B208306
:100AE000EA85FB852081CA010F8402C0880F991F07
:100AF0000A94E2F7282B2083EA85FB858081088809
:100B000002C0440F551F0A94E2F7842B8083DF91C3
:100B1000CF911F910F91FF90EF90DF90CF90BF90FA
:100B2000AF900895FC01A085B18521898C9190E05A
:100B3000022E02C0959587950A94E2F780FFF6CFC2
:100B40000484F585E02D608308958AE091E0909318
:100B5000BA018093B90185E391E09093BC01809341
:100B6000BB0185EC90E09093BE018093BD0184ECC5
:100B700090E09093C0018093BF0180EC90E090934F
:100B8000C2018093C10181EC90E09093C4018093F5
:100B9000C30186EC90E09093C6018093C50184E088
:100BA0008093C70183E08093C80187E08093C901E7
:100BB00085E08093CA010895DC01ED91FC910190DC
:100BC000F081E02D099508951F920F920FB60F92B4
:100BD00011242F938F939F93AF93BF938091CB0159
:100BE0009091CC01A091CD01B091CE010196A11DB3
:100BF000B11D8093CB019093CC01A093CD01B09314
:100C0000CE018091CF019091D001A091D101B091FE
:100C1000D2018050904CAF4FBF4F8093CF01909343
:100C2000D001A093D101B093D20127C08091CF0110
:100C30009091D001A091D101B091D20180589E43F2
:100C4000A040B0408093CF019093D001A093D101F8
:100C5000B093D2018091D3019091D401A091D5019C
:100C6000B091D6010196A11DB11D8093D30190933F
:100C7000D401A093D501B093D6018091CF0190917A
:100C8000D001A091D101B091D20181589E43A040E2
:100C9000B04060F6BF91AF919F918F912F910F90CF
:100CA0000FBE0F901F901895EF92FF920F931F9316
:100CB0007B018C018FB7F8944091D3015091D401FE
:100CC0006091D5017091D6018FBF2FB7F8948091B4
:100CD000D3019091D401A091D501B091D6012FBF3D
:100CE000841B950BA60BB70BE816F9060A071B0722
:100CF00060F71F910F91FF90EF900895789484B55D
:100D0000826084BD84B5816084BD85B5826085BD07
:100D100085B5816085BDEEE6F0E0808181608083ED
:100D2000E1E8F0E08081826080838081816080835F
:100D3000E0E8F0E0808181608083E1EBF0E0808199
:100D400084608083E0EBF0E0808181608083EAE76B
:100D5000F0E08081846080838081826080838081F4
:100D6000816080838081806880831092C1000895B3
:100D70001F93CF93DF93182FEB0161E00E941107BF
:100D8000E12FF0E0E255FF4F8491833051F48091E0
:100D90008000806880938000D0938900C093880091
:100DA0003CC0843051F48091800080628093800048
:100DB000D0938B00C0938A0030C0813039F42097E3
:100DC00029F184B5806884BDC7BD27C0823039F45D
:100DD0002097E1F084B5806284BDC8BD1EC0863016
:100DE00041F48091B00080688093B000C093B3005C
:100DF00014C0873041F48091B00080628093B000CD
:100E0000C093B4000AC0C038D1051CF4812F60E043
:100E100002C0812F61E00E943107DF91CF911F91C5
:100E20000895282F30E0C90186569F4FFC01949108
:100E30002A573F4FF9018491882391F0E82FF0E081
:100E4000EE0FFF1FE859FF4FA591B491662329F4D7
:100E50008C91909589238C9308958C91892B8C93F8
:100E60000895482F50E0CA0182559F4FFC012491FC
:100E7000CA0186569F4FFC0194914A575F4FFA0171
:100E800034913323D1F1222331F1233021F48091A5
:100E900080008F7705C0243031F4809180008F7DF1
:100EA0008093800018C0213019F484B58F7704C076
:100EB000223021F484B58F7D84BD0DC0263021F40D
:100EC0008091B0008F7705C0273029F48091B00061
:100ED0008F7D8093B000E32FF0E0EE0FFF1FEE5800
:100EE000FF4FA591B491662329F48C9190958923A5
:100EF0008C9308958C91892B8C93089597FB092EE0
:100F000007260AD077FD04D049D006D000201AF475
:100F1000709561957F4F0895F6F7909581959F4F55
:100F20000895A1E21A2EAA1BBB1BFD010DC0AA1F2A
:100F3000BB1FEE1FFF1FA217B307E407F50720F042
:100F4000A21BB30BE40BF50B661F771F881F991FBD
:100F50001A9469F760957095809590959B01AC0106
:100F6000BD01CF01089597FB092E05260ED057FD30
:100F700004D0D7DF0AD0001C38F450954095309546
:100F800021953F4F4F4F5F4F0895F6F7909580950D
:100F9000709561957F4F8F4F9F4F0895AA1BBB1B84
:100FA00051E107C0AA1FBB1FA617B70710F0A61B69
:100FB000B70B881F991F5A95A9F780959095BC018A
:100FC000CD010895EE0FFF1F0590F491E02D0994D7
:040FD000F894FFCFC3
:0C0FD4002000DB0100000000000092057E
:00000001FF
